{
  "address": "0x5D5D55Ef1B3edFb6729f8251606C396Fa7467089",
  "abi": [
    {
      "inputs": [
        {
          "internalType": "address",
          "name": "_pool",
          "type": "address"
        }
      ],
      "name": "getReward",
      "outputs": [
        {
          "internalType": "uint256",
          "name": "gasUsed",
          "type": "uint256"
        },
        {
          "internalType": "uint256",
          "name": "rewardInRewardToken",
          "type": "uint256"
        },
        {
          "internalType": "uint256",
          "name": "rewardInFtm",
          "type": "uint256"
        }
      ],
      "stateMutability": "nonpayable",
      "type": "function"
    },
    {
      "inputs": [],
      "name": "rewardToken",
      "outputs": [
        {
          "internalType": "contract IERC20",
          "name": "",
          "type": "address"
        }
      ],
      "stateMutability": "view",
      "type": "function"
    },
    {
      "inputs": [],
      "name": "spookyRouter",
      "outputs": [
        {
          "internalType": "address",
          "name": "",
          "type": "address"
        }
      ],
      "stateMutability": "view",
      "type": "function"
    },
    {
      "inputs": [],
      "name": "wrappedFtm",
      "outputs": [
        {
          "internalType": "contract IERC20",
          "name": "",
          "type": "address"
        }
      ],
      "stateMutability": "view",
      "type": "function"
    }
  ],
  "transactionHash": "0x08cb8155aa41861c4a6e27c7fe4673e4513ea836f741066bc903fc5ae72c5787",
  "args": [],
  "solcInputHash": "ab255bc2e5f890ee55f8d781637010cf",
  "bytecode": "0x6080604052600080546001600160a01b031990811673888ef71766ca594ded1f0fa3ae64ed2941740a20179091556001805482167321be370d5312f44cb42ce377bc9b8a0cef1a4c831790556002805490911673f491e7b69e4244ad4002bc14e878a34207e38c2917905534801561007657600080fd5b5061054c806100866000396000f3fe608060405234801561001057600080fd5b506004361061004c5760003560e01c80638ed8ea7e14610051578063c00007b014610081578063e1c4d48b146100af578063f7c618c1146100c2575b600080fd5b600254610064906001600160a01b031681565b6040516001600160a01b0390911681526020015b60405180910390f35b61009461008f366004610367565b6100d5565b60408051938452602084019290925290820152606001610078565b600154610064906001600160a01b031681565b600054610064906001600160a01b031681565b600080546040516370a0823160e01b81523060048201528291829182916001600160a01b0316906370a0823190602401602060405180830381865afa158015610122573d6000803e3d6000fd5b505050506040513d601f19601f820116820180604052508101906101469190610397565b905060005a9050856001600160a01b031663fdb5a03e6040518163ffffffff1660e01b8152600401600060405180830381600087803b15801561018857600080fd5b505af115801561019c573d6000803e3d6000fd5b505050505a6101ab90826103b0565b600080546040516370a0823160e01b815230600482015292975090916001600160a01b03909116906370a0823190602401602060405180830381865afa1580156101f9573d6000803e3d6000fd5b505050506040513d601f19601f8201168201806040525081019061021d9190610397565b604080516002808252606082018352929350600092909160208301908036833750506000805483519394506001600160a01b031692849250610261576102616103eb565b6001600160a01b0392831660209182029290920101526001805483519216918391908110610291576102916103eb565b6001600160a01b03909216602092830291909101909101526102b384836103b0565b60025460405163d06ca61f60e01b81529197506000916001600160a01b039091169063d06ca61f906102eb908a908690600401610401565b600060405180830381865afa158015610308573d6000803e3d6000fd5b505050506040513d6000823e601f3d908101601f191682016040526103309190810190610458565b9050806001825161034191906103b0565b81518110610351576103516103eb565b6020026020010151955050505050509193909250565b60006020828403121561037957600080fd5b81356001600160a01b038116811461039057600080fd5b9392505050565b6000602082840312156103a957600080fd5b5051919050565b6000828210156103d057634e487b7160e01b600052601160045260246000fd5b500390565b634e487b7160e01b600052604160045260246000fd5b634e487b7160e01b600052603260045260246000fd5b6000604082018483526020604081850152818551808452606086019150828701935060005b8181101561044b5784516001600160a01b031683529383019391830191600101610426565b5090979650505050505050565b6000602080838503121561046b57600080fd5b825167ffffffffffffffff8082111561048357600080fd5b818501915085601f83011261049757600080fd5b8151818111156104a9576104a96103d5565b8060051b604051601f19603f830116810181811085821117156104ce576104ce6103d5565b6040529182528482019250838101850191888311156104ec57600080fd5b938501935b8285101561050a578451845293850193928501926104f1565b9897505050505050505056fea264697066735822122065925ab264dbdbb8aaca8cab2a1446eb72253814426ef1181ccabfa0e0a3e69064736f6c634300080c0033",
  "devdoc": {
    "kind": "dev",
    "methods": {},
    "version": 1
  },
  "userdoc": {
    "kind": "user",
    "methods": {},
    "version": 1
  },
  "storageLayout": {
    "storage": [
      {
        "astId": 1279,
        "contract": "contracts/Reinvester.sol:Reinvester",
        "label": "rewardToken",
        "offset": 0,
        "slot": "0",
        "type": "t_contract(IERC20)181"
      },
      {
        "astId": 1288,
        "contract": "contracts/Reinvester.sol:Reinvester",
        "label": "wrappedFtm",
        "offset": 0,
        "slot": "1",
        "type": "t_contract(IERC20)181"
      },
      {
        "astId": 1294,
        "contract": "contracts/Reinvester.sol:Reinvester",
        "label": "spookyRouter",
        "offset": 0,
        "slot": "2",
        "type": "t_address"
      }
    ],
    "types": {
      "t_address": {
        "encoding": "inplace",
        "label": "address",
        "numberOfBytes": "20"
      },
      "t_contract(IERC20)181": {
        "encoding": "inplace",
        "label": "contract IERC20",
        "numberOfBytes": "20"
      }
    }
  }
}