{
  "address": "0x386A17f692B3F85dA7f8146c0B63A9D11f59071E",
  "abi": [
    {
      "inputs": [],
      "name": "ETH",
      "outputs": [
        {
          "internalType": "address",
          "name": "",
          "type": "address"
        }
      ],
      "stateMutability": "view",
      "type": "function"
    },
    {
      "inputs": [],
      "name": "GELATO",
      "outputs": [
        {
          "internalType": "address",
          "name": "",
          "type": "address"
        }
      ],
      "stateMutability": "view",
      "type": "function"
    },
    {
      "inputs": [],
      "name": "GELATO_OPS",
      "outputs": [
        {
          "internalType": "contract IOps",
          "name": "",
          "type": "address"
        }
      ],
      "stateMutability": "view",
      "type": "function"
    },
    {
      "inputs": [],
      "name": "RECEIVER",
      "outputs": [
        {
          "internalType": "address",
          "name": "",
          "type": "address"
        }
      ],
      "stateMutability": "view",
      "type": "function"
    },
    {
      "inputs": [],
      "name": "SUSHI_ROUTER",
      "outputs": [
        {
          "internalType": "contract IRouter",
          "name": "",
          "type": "address"
        }
      ],
      "stateMutability": "view",
      "type": "function"
    },
    {
      "inputs": [],
      "name": "UNI_ROUTER",
      "outputs": [
        {
          "internalType": "contract IRouter",
          "name": "",
          "type": "address"
        }
      ],
      "stateMutability": "view",
      "type": "function"
    },
    {
      "inputs": [],
      "name": "WETH",
      "outputs": [
        {
          "internalType": "address",
          "name": "",
          "type": "address"
        }
      ],
      "stateMutability": "view",
      "type": "function"
    },
    {
      "inputs": [
        {
          "internalType": "uint256",
          "name": "_amount",
          "type": "uint256"
        },
        {
          "internalType": "address",
          "name": "_token",
          "type": "address"
        }
      ],
      "name": "claimTokens",
      "outputs": [],
      "stateMutability": "nonpayable",
      "type": "function"
    },
    {
      "inputs": [
        {
          "internalType": "address",
          "name": "_token",
          "type": "address"
        },
        {
          "internalType": "bool",
          "name": "_useSushi",
          "type": "bool"
        }
      ],
      "name": "maxApprove",
      "outputs": [],
      "stateMutability": "nonpayable",
      "type": "function"
    },
    {
      "inputs": [
        {
          "internalType": "address",
          "name": "_target",
          "type": "address"
        },
        {
          "internalType": "bytes",
          "name": "_data",
          "type": "bytes"
        },
        {
          "internalType": "address",
          "name": "_rewardToken",
          "type": "address"
        },
        {
          "internalType": "uint256",
          "name": "_profitMargin",
          "type": "uint256"
        },
        {
          "internalType": "bool",
          "name": "_swapAll",
          "type": "bool"
        },
        {
          "internalType": "bool",
          "name": "_useSushi",
          "type": "bool"
        }
      ],
      "name": "poke",
      "outputs": [],
      "stateMutability": "nonpayable",
      "type": "function"
    },
    {
      "stateMutability": "payable",
      "type": "receive"
    }
  ],
  "transactionHash": "0x7d1beb436dea12687419320950a5bd42efb70a64a35b6ed3249e8c7d9338600a",
  "args": [],
  "solcInputHash": "3011851dfb265a03ebc78ede6a995cc3",
  "bytecode": "0x608060405234801561001057600080fd5b50611137806100206000396000f3fe6080604052600436106100955760003560e01c8063ad5c464811610059578063ad5c464814610177578063ad7430cc1461019f578063e1042232146101c7578063ee0ab465146101e7578063eff557a71461020f57600080fd5b80630c24f4fa146100a157806361ca43f1146100e55780636e164e23146101075780637c559c52146101275780638322fff21461014f57600080fd5b3661009c57005b600080fd5b3480156100ad57600080fd5b506100c973d9e1ce17f2641f24ae83637ab66a2cca9c378b9f81565b6040516001600160a01b03909116815260200160405180910390f35b3480156100f157600080fd5b50610105610100366004610d41565b610237565b005b34801561011357600080fd5b50610105610122366004610e23565b61085e565b34801561013357600080fd5b506100c973b3f5503f93d5ef84b06993a1975b9d21b962892f81565b34801561015b57600080fd5b506100c973eeeeeeeeeeeeeeeeeeeeeeeeeeeeeeeeeeeeeeee81565b34801561018357600080fd5b506100c973c02aaa39b223fe8d0a0e5c4f27ead9083c756cc281565b3480156101ab57600080fd5b506100c973aabb54394e8dd61dd70897e9c80be8de7c64a89581565b3480156101d357600080fd5b506101056101e2366004610e53565b610881565b3480156101f357600080fd5b506100c9737a250d5630b4cf539739df2c5dacb4c659f2488d81565b34801561021b57600080fd5b506100c9733caca7b48d0573d793d3b0279b5f0029180e83b681565b3373b3f5503f93d5ef84b06993a1975b9d21b962892f146102915760405162461bcd60e51b815260206004820152600f60248201526e4f6e6c792047656c61746f204f707360881b60448201526064015b60405180910390fd5b6040516370a0823160e01b81523060048201526000906001600160a01b038616906370a0823190602401602060405180830381865afa1580156102d8573d6000803e3d6000fd5b505050506040513d601f19601f820116820180604052508101906102fc9190610e81565b90506000876001600160a01b0316876040516103189190610ec6565b6000604051808303816000865af19150503d8060008114610355576040519150601f19603f3d011682016040523d82523d6000602084013e61035a565b606091505b50509050806103bb5760405162461bcd60e51b815260206004820152602760248201527f436f6e7472616374506f6b65723a204c6f77206c6576656c2063616c6c2066616044820152660d2d8cac84074560cb1b6064820152608401610288565b6040516370a0823160e01b81523060048201526000906001600160a01b038816906370a0823190602401602060405180830381865afa158015610402573d6000803e3d6000fd5b505050506040513d601f19601f820116820180604052508101906104269190610e81565b905060006104348483610ef8565b6040805160028082526060820183529293506000929091602083019080368337019050509050888160008151811061046e5761046e610f0f565b60200260200101906001600160a01b031690816001600160a01b03168152505073c02aaa39b223fe8d0a0e5c4f27ead9083c756cc2816001815181106104b6576104b6610f0f565b60200260200101906001600160a01b031690816001600160a01b031681525050600073b3f5503f93d5ef84b06993a1975b9d21b962892f6001600160a01b031663b810c6366040518163ffffffff1660e01b81526004016040805180830381865afa158015610529573d6000803e3d6000fd5b505050506040513d601f19601f8201168201806040525081019061054d9190610f25565b50905060008761057157737a250d5630b4cf539739df2c5dacb4c659f2488d610587565b73d9e1ce17f2641f24ae83637ab66a2cca9c378b9f5b905088156106ae576040516318cbafe560e01b81526000906001600160a01b038316906318cbafe5906105c69088908590899030904290600401610f8e565b6000604051808303816000875af11580156105e5573d6000803e3d6000fd5b505050506040513d6000823e601f3d908101601f1916820160405261060d9190810190610fca565b9050606461061b8c85611070565b610625919061108f565b81600183516106349190610ef8565b8151811061064457610644610f0f565b602002602001015110156106a85760405162461bcd60e51b815260206004820152602560248201527f436f6e7472616374506f6b65723a2073776170416c6c206e6f742070726f66696044820152647461626c6560d81b6064820152608401610288565b5061081c565b604051632512eca560e11b81526001600160a01b03821690634a25d94a906106e29085908890889030904290600401610f8e565b6000604051808303816000875af1158015610701573d6000803e3d6000fd5b505050506040513d6000823e601f3d908101601f191682016040526107299190810190610fca565b506040516370a0823160e01b81523060048201526000906001600160a01b038d16906370a0823190602401602060405180830381865afa158015610771573d6000803e3d6000fd5b505050506040513d601f19601f820116820180604052508101906107959190610e81565b905060006107a38288610ef8565b905060646107b18d83611070565b6107bb919061108f565b8610156108195760405162461bcd60e51b815260206004820152602660248201527f436f6e7472616374506f6b65723a202173776170416c6c206e6f742070726f66604482015265697461626c6560d01b6064820152608401610288565b50505b61084f8273eeeeeeeeeeeeeeeeeeeeeeeeeeeeeeeeeeeeeeee733caca7b48d0573d793d3b0279b5f0029180e83b661093c565b50505050505050505050505050565b61087d828273aabb54394e8dd61dd70897e9c80be8de7c64a89561093c565b5050565b816001600160a01b031663095ea7b3826108af57737a250d5630b4cf539739df2c5dacb4c659f2488d6108c5565b73d9e1ce17f2641f24ae83637ab66a2cca9c378b9f5b6040516001600160e01b031960e084901b1681526001600160a01b03909116600482015260001960248201526044016020604051808303816000875af1158015610913573d6000803e3d6000fd5b505050506040513d601f19601f8201168201806040525081019061093791906110b1565b505050565b6001600160a01b03821673eeeeeeeeeeeeeeeeeeeeeeeeeeeeeeeeeeeeeeee1415610a0a576000816001600160a01b03168460405160006040518083038185875af1925050503d80600081146109ae576040519150601f19603f3d011682016040523d82523d6000602084013e6109b3565b606091505b5050905080610a045760405162461bcd60e51b815260206004820152601e60248201527f5f7472616e736665723a20455448207472616e73666572206661696c656400006044820152606401610288565b50505050565b6109378282856040516001600160a01b03831660248201526044810182905261093790849063a9059cbb60e01b9060640160408051601f198184030181529190526020810180516001600160e01b03166001600160e01b0319909316929092179091526000610ac2826040518060400160405280602081526020017f5361666545524332303a206c6f772d6c6576656c2063616c6c206661696c6564815250856001600160a01b0316610b3f9092919063ffffffff16565b8051909150156109375780806020019051810190610ae091906110b1565b6109375760405162461bcd60e51b815260206004820152602a60248201527f5361666545524332303a204552433230206f7065726174696f6e20646964206e6044820152691bdd081cdd58d8d9595960b21b6064820152608401610288565b6060610b4e8484600085610b58565b90505b9392505050565b606082471015610bb95760405162461bcd60e51b815260206004820152602660248201527f416464726573733a20696e73756666696369656e742062616c616e636520666f6044820152651c8818d85b1b60d21b6064820152608401610288565b843b610c075760405162461bcd60e51b815260206004820152601d60248201527f416464726573733a2063616c6c20746f206e6f6e2d636f6e74726163740000006044820152606401610288565b600080866001600160a01b03168587604051610c239190610ec6565b60006040518083038185875af1925050503d8060008114610c60576040519150601f19603f3d011682016040523d82523d6000602084013e610c65565b606091505b5091509150610c75828286610c80565b979650505050505050565b60608315610c8f575081610b51565b825115610c9f5782518084602001fd5b8160405162461bcd60e51b815260040161028891906110ce565b6001600160a01b0381168114610cce57600080fd5b50565b8035610cdc81610cb9565b919050565b634e487b7160e01b600052604160045260246000fd5b604051601f8201601f1916810167ffffffffffffffff81118282101715610d2057610d20610ce1565b604052919050565b8015158114610cce57600080fd5b8035610cdc81610d28565b60008060008060008060c08789031215610d5a57600080fd5b8635610d6581610cb9565b955060208781013567ffffffffffffffff80821115610d8357600080fd5b818a0191508a601f830112610d9757600080fd5b813581811115610da957610da9610ce1565b610dbb601f8201601f19168501610cf7565b91508082528b84828501011115610dd157600080fd5b8084840185840137600084828401015250809750505050610df460408801610cd1565b935060608701359250610e0960808801610d36565b9150610e1760a08801610d36565b90509295509295509295565b60008060408385031215610e3657600080fd5b823591506020830135610e4881610cb9565b809150509250929050565b60008060408385031215610e6657600080fd5b8235610e7181610cb9565b91506020830135610e4881610d28565b600060208284031215610e9357600080fd5b5051919050565b60005b83811015610eb5578181015183820152602001610e9d565b83811115610a045750506000910152565b60008251610ed8818460208701610e9a565b9190910192915050565b634e487b7160e01b600052601160045260246000fd5b600082821015610f0a57610f0a610ee2565b500390565b634e487b7160e01b600052603260045260246000fd5b60008060408385031215610f3857600080fd5b825191506020830151610e4881610cb9565b600081518084526020808501945080840160005b83811015610f835781516001600160a01b031687529582019590820190600101610f5e565b509495945050505050565b85815284602082015260a060408201526000610fad60a0830186610f4a565b6001600160a01b0394909416606083015250608001529392505050565b60006020808385031215610fdd57600080fd5b825167ffffffffffffffff80821115610ff557600080fd5b818501915085601f83011261100957600080fd5b81518181111561101b5761101b610ce1565b8060051b915061102c848301610cf7565b818152918301840191848101908884111561104657600080fd5b938501935b838510156110645784518252938501939085019061104b565b98975050505050505050565b600081600019048311821515161561108a5761108a610ee2565b500290565b6000826110ac57634e487b7160e01b600052601260045260246000fd5b500490565b6000602082840312156110c357600080fd5b8151610b5181610d28565b60208152600082518060208401526110ed816040850160208701610e9a565b601f01601f1916919091016040019291505056fea2646970667358221220cffe9ff6e4417072fda2b17643f453909344bcfc15dc49259df6d41cf6fcc97364736f6c634300080c0033",
  "devdoc": {
    "kind": "dev",
    "methods": {},
    "version": 1
  },
  "userdoc": {
    "kind": "user",
    "methods": {},
    "version": 1
  },
  "storageLayout": {
    "storage": [],
    "types": null
  }
}